:1000000000100020CD050000CB050000CB0500004E
:10001000CB050000CB050000CB050000CB050000A0
:10002000CB050000CB050000CB050000CB05000090
:10003000CB050000CB050000CB050000CB05000080
:10004000CB050000CB050000CB050000CB05000070
:10005000CB050000CB050000CB050000CB05000060
:10006000CB050000CB050000CB050000CB05000050
:10007000B1280000CB050000CB050000A105000061
:10008000AD050000CB050000CB050000CB0500004E
:10009000CB050000CB050000CB050000CB05000020
:1000A000CB0500005D07000035070000CB05000010
:1000B000CB050000CB050000CB050000CB05000000
:1000C000CB050000CB050000CB050000CB050000F0
:1000D000CB050000CB050000CB050000CB050000E0
:1000E000CB050000CB050000CB050000CB050000D0
:1000F000CB050000CB050000CB050000CB050000C0
:10010000CB050000CB050000CB050000CB050000AF
:10011000CB050000CB050000CB050000CB0500009F
:10012000CB050000CB050000CB050000CB0500008F
:10013000CB050000CB050000CB050000CB0500007F
:1001400010B5054C237833B9044B13B1044800E0D3
:1001500000BF0123237010BD7C10002000000000B0
:10016000A430000008B5034B1BB10349034800E06D
:1001700000BF08BD0000000080100020A430000077
:10018000154B002B08BF134B9D46A3F5803A002169
:100190008B460F461348144A121A02F087FD0F4B84
:1001A000002B00D098470E4B002B00D09847002022
:1001B000002104000D000D48002802D00C4800E08A
:1001C00000BF02F04FFD2000290000F007F902F007
:1001D00035FD00BF000008000010002000000000F6
:1001E000000000007C1000208811002000000000AA
:1001F00000000000012838B514BFFF231F23CB40A7
:10020000DB0704460D4604D44FF48261074800F032
:10021000B9FA3020012141F21003604300F180401F
:10022000A94000F57030C15038BD00BFD42C00008B
:1002300043F270020821094B0420995043F2A001B7
:1002400058500221995043F2100210219950044A4B
:10025000137883F001031370704700BF00C00340A0
:100260008511002007B501230722CDE9003311468F
:100270000023022001F02AFB00F040FA0720034986
:1002800003B05DF804EB00F047BA00BF3102000094
:10029000064B074A1B68C3F340031370054B064A1D
:1002A0001B68C3F380031370704700BF44C0034052
:1002B0006811002074C00340841100200121074A06
:1002C000402002F5015319601021196042F27001BB
:1002D000505008221A60FFF7DBBF00BF00C0034088
:1002E00008B5FFF7EBFF412002F094F90621022048
:1002F000FFF780FF03210120FFF77CFF042101208D
:10030000FFF778FF172002F085F9BDE80840FFF7F6
:10031000D5BF08B5FFF7D2FF412002F07BF90021DD
:100320000120FFF767FF04210120FFF763FF03218E
:100330000120FFF75FFF172002F06CF9BDE80840CD
:10034000FFF7BCBF08B5FFF7B9FF412002F062F923
:1003500000210120FFF74EFF04210120FFF74AFF93
:1003600006210220FFF746FF03210120FFF742FF8D
:10037000112002F04FF9BDE80840FFF789BF0000E7
:1003800038B530BFFFF784FF114D124C2B7803B9FD
:1003900038BD237823B9104B1B780BB9FFF7D2FF78
:1003A000237823B10C4B1B780BB9FFF799FF237807
:1003B00023B9094B1B780BB1FFF7ABFF2378002B58
:1003C000E4D0054B1B78002BE0D0FFF777FFDDE78B
:1003D00085110020681100208411002008B502F06A
:1003E0008BFAFFF73FFF02F094FAFFF7C9FFFAE735
:1003F000704708B50321802000F052FF08214FF418
:10040000C06000F04DFF08214FF4F06000F048FF9D
:1004100008213E2000F044FF08212D2000F040FF7D
:10042000002008BD10B501213A2000F019FB00237F
:1004300001220721022001F0CFFA002304221846EE
:10044000114601F0C9FA002304220121022001F023
:10045000C3FA002304220621022001F0BDFA002382
:1004600004220321012001F0B7FA012302211A46D8
:10047000084601F0B1FA002304220321022001F012
:10048000ABFA002304220221032001F0A5FA002385
:1004900004221946012001F09FFA0422002311468C
:1004A000012001F099FABDE8104001231A461946CF
:1004B000184601F091BA0000144B10B51B68C3F345
:1004C0000743012B10D1124B4FF48022596E41F299
:1004D000640049034FF0040458BF42F264011A500B
:1004E0000C48046058BF5A5001F014FD00F069F840
:1004F00001F0A6FC01F0C6FC01F0F2FCFFF779FF69
:1005000001F0AEFCBDE8104000F052B80080E00FF2
:100510000080004020200140FFF784BF08B501F0B3
:10052000F3FFBDE8084000F039B8704770477047E6
:10053000704770477047000070B5144C92B00BAD17
:100540000FCC0FC594E80700032385E8070003AE2E
:100550008DF8443007AD04F10C031C340FCB86E852
:100560000F0094E80F0085E80F00094B0BAA0093D9
:1005700029463346074801F041FE044618B17A2166
:10058000054800F0FFF8204612B070BD382D00007D
:1005900098100020EC100020742D0000FFF7CCBF55
:1005A000014B186801F0E6BEEC100020FFF7F8BF21
:1005B00008B501213A2000F053FABDE80840FFF7E2
:1005C00017BF01213A2000F04BBAFEE708B500F052
:1005D00013F8064A064B07498B4201D3FFF7D0FDBB
:1005E00052F8040F43F8040BF6E700BFA8300000F0
:1005F000001000207C100020044B054A9A60D3F8BC
:10060000882042F47002C3F88820704700ED00E0B3
:1006100000000000014B1868704700BF0410002064
:10062000084B1B6F03F00703022B04D0032B05D0EC
:10063000012B05D0FEE7044B18687047034BFBE71E
:10064000034870470080004004100020081000207C
:10065000002D310108B5FFF7E3FF054B1B6FC3F316
:1006600003330133B0FBF3F0024B186008BD00BF49
:1006700000800040001000200048704700B4C4040F
:10068000014B1868704700BF08100020054B186028
:10069000054B1B6F03F00703032B01D1FFF7DABFF4
:1006A000704700BF08100020008000400020704705
:1006B00000487047002D31014FF4004070474FF45F
:1006C0007A707047014B1868704700BF0C1000200B
:1006D00070B504460125084E04B970BD94FAA4F023
:1006E000B0FA80F005FA00F324EA030456F820304B
:1006F000002BF1D09847EFE7041100204FF0007273
:10070000044BC3F880211A604FF08062C3F8802147
:100710001A60704700E100E038B504460D4600F06D
:100720007AFF034B43F82450BDE8384000F079BF0E
:1007300004110020084BD3F82404D3F820241040DF
:1007400042F2204220F42A5020F02A004004400CBB
:100750009850FFF7BDBF00BF00C00340084BD3F85F
:100760002404D3F82024104042F2204220F4AA406E
:1007700020F055000004000C9850FFF7A9BF00BFFF
:1007800000C00340FEE70000054A1368DB06FCD406
:100790004FF04023D3F88400C0F38110704700BFAE
:1007A0008440004038B5124B0546D3F820310C4642
:1007B00003F00303022B0BD0032B0DD0012B0FD121
:1007C000FFF728FF052305B1286004B1237038BD69
:1007D000FFF756FF0323F6E7FFF76AFF0223F2E76E
:1007E000044840F62851FFF7CDFF00231846EAE7FA
:1007F00000800040A22D0000F7B50024114B0194A9
:10080000D3F88051074605F00305012D0E4607D0A9
:10081000022D11D040F644610B48FFF7B3FF04E00E
:10082000214601A8FFF7BEFF0D240FB1019B3B60DD
:1008300006B1347003B0F0BDFFF73AFF2C460190CB
:10084000F3E700BF00800040A22D000038B5194B2F
:100850000546D3F824310C4603F00703013B052B72
:1008600020D8DFE803F0030F171B0B13FFF7D2FEAE
:10087000052305B1286004B1237038BDFFF7CAFE17
:100880000623F6E7FFF7FCFE0323F2E7FFF7F8FE87
:100890000423EEE7FFF70CFF0223EAE7FFF706FF6A
:1008A0000723E6E704484FF4F571FFF76BFF0023D9
:1008B0001846DEE700800040A22D000038B5124B3C
:1008C0000546D3F840310C4603F00303022B0BD04E
:1008D000032B0DD0012B0FD1FFF7EEFE092305B13D
:1008E000286004B1237038BDFFF7ECFE0823F6E75B
:1008F000FFF7E5FE0A23F2E7044840F65651FFF7FA
:1009000041FF00231846EAE700800040A22D0000C6
:1009100038B5154B0546D3F800320C4603F00703F3
:10092000013B032B18D8DFE803F0020A0E12FFF791
:10093000C3FE092305B1286004B1237038BDFFF759
:10094000C1FE0823F6E7FFF7BAFE0A23F2E7FFF736
:1009500081FE0C23800AEDE7044840F6F761FFF7BB
:1009600011FF00231846E5E700800040A22D00009B
:1009700038B5124B0546D3F840320C4603F003035A
:10098000022B0BD0032B0DD0012B0FD1FFF794FEC0
:10099000092305B1286004B1237038BDFFF792FE2A
:1009A0000823F6E7FFF78BFE0A23F2E7044840F638
:1009B0008B61FFF7E7FE00231846EAE7008000405E
:1009C000A22D000038B5124B0546D3F860310C4615
:1009D00003F00303022B0BD0032B0DD0012B0FD1FF
:1009E000FFF76AFE092305B1286004B1237038BD02
:1009F000FFF768FE0823F6E7FFF761FE0A23F2E738
:100A0000044840F68451FFF7BDFE00231846EAE78C
:100A100000800040A22D00000F4B10B4D3F820320C
:100A20000A4603F00303012B0ED0022B10D008B1AD
:100A3000002303600AB10023137040F2132107481A
:100A40005DF8044BFFF79EBE5DF8044BFFF7AABEAE
:100A50005DF8044BFFF732BF00800040A22D00007C
:100A600070B5440905460E460DD1E4210D48FFF747
:100A700089FE05F01F058EB104F58053012202FAAC
:100A800005F51D6070BD012C06D0074A074B022CEE
:100A900014BF14461C46ECE7054CEAE704F5005386
:100AA000ECE700BFA22D000060820040688000409B
:100AB00064800040B0F5007F10B52FD005D8D0B1CC
:100AC000B0F5C07F17D0002426E0B0F5207F2BD0F2
:100AD000B0F5607FF7D1174BD3F88040C4F3011411
:100AE000012C19D9032C17D040F2EF511248FFF70F
:100AF00049FE022410E00F4B1C6FC4F30334012C99
:100B00000AD9032C08D0072C06D00F2C04D040F2B1
:100B1000E2510948FFF736FE601C10BD054BD3F8C3
:100B20009040C4F30464F7E7024B1C6FC4F38024C5
:100B3000F2E700BF00800040A22D0000002337B57F
:100B40003E280446019300F0BA8045D82B282BD0CC
:100B500022D8232816D00FD820284CD007D8002818
:100B600049D040F2AF115848FFF70CFE87E021282A
:100B700008D022283FD0F4E7292800F296802828C0
:100B8000C0F08980FFF766FD04464FF42070FFF740
:100B900091FFB4FBF0F071E0312810D82F28F1D28A
:100BA0002D2800F0878056D9FFF754FD04464FF4F6
:100BB0002070FFF77FFFB4FBF0F040085EE03C28B8
:100BC00055D83A28DED238286AD03928C9D1002130
:100BD00001A8FFF73BFE52E0B0F5007F52D01BD8D2
:100BE000522858D00AD84D2805D002D83F28C9D05D
:100BF000B7E74F28B5D3FFF72DFD3FE080283BD066
:100C000004D8A0F16004012CF5D9AAE7B0F5807FE3
:100C100021D0B0F5C07FADE7B0F5A06F40D010D8BF
:100C2000B0F5607F2ED006D8B0F5207FAAD0B0F501
:100C3000407FB9D095E7B0F5806F2CD0B0F5906FBC
:100C4000C4E7B0F5D06F35D00AD8B0F5B06F2CD06E
:100C5000B0F5C06F85D1002101A8FFF72FFE0EE08F
:100C6000B0F5E06F2BD0B0F5F06F7FF47AAF0021D4
:100C700001A8FFF7A7FE02E0FFF7D2FC0190019860
:100C800003B030BDFFF7CCFC05462046FFF712FF4E
:100C9000B5FBF0F0F2E7002101A8FFF783FDEEE7D6
:100CA000002101A8FFF7B8FEE9E7002101A8FFF73E
:100CB000A3FDE4E7002101A8FFF72AFEDFE70021FA
:100CC00001A8FFF755FEDAE7A22D000008B5802045
:100CD000FFF734FF044B98429FBF42F270034FF47A
:100CE0008031024AD15008BD005A620200800040A3
:100CF00070B541F268030E464FF400310E4A0546C6
:100D0000D1500020FFF7D6FE41F671320B4B6843FD
:100D1000DC690B49DA639A68884204F4803422F46F
:100D2000401203D9012E18BF42F480129A600CB110
:100D30000022DA6370BD00BF008000400000034065
:100D4000005A620208B5FFF797FCBDE80840002191
:100D5000FFF7CEBF002307B5B0F5807F8DF80730D1
:100D60000FD030D82D2800F0868010D82A2841D006
:100D700005D82438032831D940F2017171E02C28BC
:100D8000FAD10DF107010020FFF798FD37E03E286A
:100D900044D009D838287ED03D28EDD10DF1070187
:100DA0000020FFF70FFE2AE0522817D08028E3D159
:100DB0003C4B1B6F03F00703013B032B4FD8DFE8CD
:100DC00003F04C484666B0F5C06FDAD01CD8B0F5D9
:100DD000906F4AD008D8B0F5806FCDD10DF10701E2
:100DE0000020FFF7DFFC0AE0B0F5A06F53D0B0F5AC
:100DF000B06FC1D10DF107010020FFF7FDFC9DF898
:100E0000070003B05DF804FBB0F5F06FC6D00BD857
:100E1000B0F5D06F2FD0B0F5E06FADD10DF1070177
:100E20000020FFF7A5FDEAE7B0F5006F1DD0B0F593
:100E3000086FA1D11B4BD3F8003103F00303022B41
:100E40001FD0032B21D0012B23D1FFF719FC032343
:100E500000E005238DF80730D1E70223FAE740F2DE
:100E600072611148FFF78EFCC9E70DF10701002000
:100E7000FFF7ECFCC3E70DF107010020FFF748FD89
:100E8000BDE7FFF71FFC0823E4E7FFF70FFC07238C
:100E9000E0E70123DEE70DF107010020FFF7BCFDCD
:100EA000ADE700BF00800040A22D0000037870B5C0
:100EB0000F2B044604D940F6EC217048FFF762FC82
:100EC00063780F2B04D940F6EF216C48FFF75AFCEA
:100ED000A3780F2B04D940F6F2216848FFF752FCA3
:100EE000E3780F2B04D940F6F5216448FFF74AFC5C
:100EF00023790F2B04D940F6F8216048FFF742FC14
:100F000063793F2B04D940F6FB215C48FFF73AFC9C
:100F1000A3793F2B04D940F6FE215848FFF732FC55
:100F2000E379032B04D940F601315448FFF72AFC3A
:100F3000237A032B04D940F604315048FFF722FCF2
:100F4000637B012B04D940F606314C48FFF71AFCAD
:100F50008020FFF7FFFE032800F0868041F2640343
:100F60004FF40021464AD15045F60E0302F5804267
:100F7000C2F88030022141F22803D15042F2280306
:100F80000121D150916D11F48031FBD1637820782B
:100F90001B0543EA0063A079657C0343E07843EADC
:100FA0000043207943EA0033607943EA80131361F8
:100FB0009369E07A03F000430343E07943EA8063F6
:100FC000207A43EA0063607A43EA0043A07A43EA66
:100FD00000239361637B126A002B18BF0821207BDA
:100FE00022F00D0243EA020343EA800341EA0301CF
:100FF000A27B244B4FEA42161962207C35D1996AB4
:10100000E27B21F0330141F00101314341EA021159
:10101000996219461C4A9E6D32EA0606FBD10222ED
:1010200041F228069A511A658B6D5B00FCD40B695E
:10103000A27823F4700343EA02530B614FF000429D
:1010400041F21803CA5018B942F228030222CA50CA
:1010500025B942F2280301210A4AD150A37C1BB1D1
:10106000084B0A4AC3F8802070BD9A6A22F0330206
:101070002A43324342EA40029A62EFE7A22D00007F
:101080000080004000C0004003000140F1A7FFFFC6
:10109000837810B5072B044604D940F6B5312B48A8
:1010A000FFF770FBE378032B04D940F6B7312748EC
:1010B000FFF768FB2378032B04D940F6B9312348A6
:1010C000FFF760FB94F90130002B04DA40F6BB31E6
:1010D0001E48FFF757FB41F264034FF480001C49A0
:1010E0006278C8504FF4D1511A4B0220596241F234
:1010F00004014F2A585042F204014FF0010028BF6A
:101100004F2258501969C903FCD4217842EA0122C0
:101110005A61E278A178120142EA012261790A4318
:10112000217942EA41029A60E279A179120142EA08
:101130004112617A0A43217A42EA41025A60A27A54
:1011400012B16FF4D1525A6210BD00BFA22D00003F
:101150000080004000000240014B1880704700BF33
:10116000101000200029CCBF01210021FFF7C0BDD5
:10117000B0F5007F10B553D00AD818B3B0F5C07FD2
:1011800020D0BDE810404FF4C9613648FFF7FABAE5
:10119000B0F5207F56D0B0F5607FF2D14C1E012C07
:1011A00006D9042904D040F235612E48FFF7EAFA47
:1011B0002D4AD2F8803023F0300343EA0413C2F8FA
:1011C000803010BD102901F1FF3404D8274B23FAD9
:1011D00001F1CB0704D440F219612248FFF7D2FA9B
:1011E000FFF7B0FD00F044F84FF4803141F2700396
:1011F0001D4AD150136F23F4704343EA043313673D
:10120000FFF728FA0446FFF7BFFAC0F102012046B3
:10121000FFF7A8FF00F032F8BDE81040FFF756BD19
:101220004C1E1F2C04D940F23C610E48FFF7AAFA6D
:101230000D4BD3F8901021F0F85141EA0461C3F846
:101240009010BEE74C1E012C04D940F242610548C3
:10125000FFF798FA044B196F21F4806141EA842169
:101260001967AEE7A22D00000080004016010100C2
:1012700002214FF42070FFF77BBF000008B54FF448
:10128000C070FFF75BFCBDE80840044988428CBF92
:10129000022101214FF42070FFF76ABF80F0FA02AB
:1012A000B0F5807F70B50C4613D04DD82D2800F0D6
:1012B0004A8121D82A2865D009D8243803284FD953
:1012C000BDE8704040F64B11B948FFF75BBA2C28D7
:1012D000F6D1092C00F007810A2C00F0FB80082CC5
:1012E00040F0FA800222B349D1F8403123F00303E1
:1012F0001343C1F84031B9E03E2863D017D83828ED
:1013000000F05C813D28DBD1092C00F0F7800A2C2D
:1013100000F0EB80082C40F0EA800222A549D1F8C9
:10132000603123F003031343C1F860319EE052287B
:1013300016D08028C4D18B1E052B00F2AB80DFE8CD
:1013400003F0A696A9B1A966B0F5C06FC1D02DD89B
:10135000B0F5906F00F0D4800DD8B0F5806FAFD1AC
:10136000032C00F0A480052C00F0B280022C40F089
:10137000A88003229CE0B0F5A06F00F01F81B0F5BB
:10138000B06F9DD1022C08D00D2C00F08E8040F261
:1013900076718748FFF7F6F90024864AD2F8803143
:1013A00023F003031C43C2F880415FE0B0F5F06F07
:1013B000AAD01AD8B0F5D06F00F0C580B0F5E06FB4
:1013C0007FF47EAF092C00F019810A2C00F00D810A
:1013D000082C40F00C8102227649D1F8403223F0EB
:1013E00003031343C1F8403240E0B0F5006F00F052
:1013F0008780B0F5086F7FF463AF4C1E072C00F2B6
:10140000CD80DFE804F0D0CBD2CBCBCBC9BF002559
:1014100004260121022000F007F9FFF793FCFFF7F3
:1014200027FF4FF4803141F27003624AD150136FAD
:1014300023F0070333431367FFF70CF90646FFF762
:10144000A3F9C0F102013046FFF78CFE0121002014
:1014500000F040F9FFF712FFFFF738FC35B9032C15
:1014600004D142F228030121534AD15070BD41F208
:1014700064034FF400214F4A0326D15041F2280261
:1014800001214D4B9D6A9950C5F34005C1E70025E8
:101490000126BEE7002540F234714548FFF772F996
:1014A0002E46B6E700250226B3E7012475E702229F
:1014B0004049D1F8203123F003031343C1F8203110
:1014C000D4E740F2A7713A48FFF75CF90022EFE752
:1014D0000122EDE7032206E740F2C3713448FFF72B
:1014E00051F90022FFE60122FDE6032216E740F251
:1014F000DB712F48FFF746F900220FE701220DE7C5
:10150000023C052C16D8DFE804F00D03131C110F64
:1015100002232849D1F8242122F007021343C1F8FD
:101520002431A3E70323F4E70423F2E70523F0E7DC
:101530000623EEE74FF400611D48FFF723F900236F
:10154000E7E70123E5E7083C042C12D8DFE804F0C4
:1015500003180D110F0002221649D1F8003223F0B2
:1015600007031343C1F8003280E70322F4E70422A3
:10157000F2E740F61D010E48FFF704F90022EBE701
:101580000122E9E702220B49D1F8003123F00303DD
:101590001343C1F8003169E70322F4E740F656012E
:1015A0000348FFF7EFF80022EDE70122EBE700BF69
:1015B000A22D00000080004000C000400D2C12D081
:1015C0000E2C09D102220E49D1F8203223F0030358
:1015D0001343C1F8203249E74FF408610948FFF787
:1015E000D1F80022EFE70122EDE70322F4E640F60E
:1015F000CE010448FFF7C6F80022EDE60122EBE633
:1016000000800040A22D0000EFF3108072B67047FA
:1016100000B962B67047EFF31180302383F311886D
:10162000704780F3118870472DE9F0410546254A3F
:101630001368D806FCD44FF04023D3F88430C3F3AA
:1016400081139D423CD0FEF7EBFF012D06460BD1E6
:101650001D4B984204D940F2C2511C48FFF792F842
:1016600001213046FFF77EFDFFF7CEFF4FF00072FD
:10167000174B4FF040241A604FF4806307466A1EF0
:101680009340DFF848802367636E9A0103D4D4F84F
:1016900084309B060AD53846FFF7BAFF022D0FD1DA
:1016A0003046BDE8F0410021FFF75CBDD4F884303E
:1016B0009906E9D540F2CF514046FFF763F8E3E7DA
:1016C000BDE8F08184400040005A6202052E00000F
:1016D0006460004010B50C4608B9FEF7A1FF074B47
:1016E00021461B783BB1064B984204D80120BDE847
:1016F0001040FFF799BF0220F9E700BF4411002016
:10170000005A62024FF04022D36E017923F0300379
:101710000B43D3667047000041F264034FF0004171
:10172000174A10B5D150012141F204024AF6CD34D6
:10173000144B99505A6C1C640A4088B99868C407C5
:1017400005D542F208001950D96AC807FCD542F203
:1017500004010120585012B10A4B0B4A1A6410BD03
:10176000D96A0907FCD442F224012020585041F2E2
:1017700008010120585003494B6A9B06FCD5EAE753
:1017800000800040004009403254FFFF38B54FF060
:10179000004141F26403184A184CD150012241F231
:1017A0000403E2504AF6CD33656C23644378154058
:1017B000934013434FF04022D363A368827823F011
:1017C000740343EA0213C278002A14BF04220022E1
:1017D0001343A3600279837943EA022323614279A8
:1017E000C379007843EA02236361FFF795FF0DB1E7
:1017F000034B2364012038BD0080004000400940B5
:101800003254FFFF38B50D460446D8B101281CD02C
:1018100002281CD003280CBF0C230023EB40DB075D
:1018200004D44FF482610B48FEF7ACFF3020012155
:1018300041F21003604300F18040A94000F5703090
:10184000C15038BD40F2FF13E8E71F23E6E7FF234E
:10185000E4E700BFD42C000038B50D460446D8B1EB
:1018600001281CD002281CD003280CBF0C23002305
:10187000EB40DB0704D440F2E1310B48FEF782FF76
:101880003020012142F21003604300F18040A94062
:1018900000F57030C15038BD40F2FF13E8E71F2358
:1018A000E6E7FF23E4E700BFD42C000070B505464F
:1018B00014460E46FFF7A8FE2A68544004EA0601C3
:1018C00051402960BDE87040FFF7A2BE2DE9F84302
:1018D0000D46174698460646002850D0012851D09C
:1018E000022851D0032814BF00230C23EB40DB0750
:1018F00003D4BF212E48FEF745FF85EA070333F0E6
:10190000030303D0C1212A48FEF73CFF072F05F04F
:1019100003054FF0030439D84FEA870904FA09F4A4
:1019200006FA09F221462348FFF7C0FF2146224864
:1019300005FA09F2FFF7BAFF204B214A9DF8200073
:101940002049B8F1000F0CBF98469046012204339D
:10195000002818BF0B46BA40C8F800201A6042F2AF
:10196000204319499DF82400CA50184B01F5A15194
:101970000431002818BF0B461A60BDE8F88340F216
:10198000FF13B3E71F23B1E7FF23AFE7A7F1080970
:101990004FEA890904FA09F406FA09F221460C48CB
:1019A000FFF784FF05FA09F221460A48C2E700BFA3
:1019B000682E000000C4034008C4034010E4034044
:1019C00010D4034014D4034000C0034024E4034077
:1019D00004C403400CC40340F8B50C4615461E462B
:1019E000074678B3012830D0022830D0032814BF2E
:1019F00000230C23E340DB0704D440F21D112048F0
:101A0000FEF7C0FE25B12146384616B3FFF7FAFEB1
:101A100030237B43072C03F1804303F570331BD83D
:101A20000F205A68A100884022EA000205FA01F15D
:101A30000A435A6015BB21463846DEB1BDE8F8407E
:101A4000FFF7E0BE40F2FF13D4E71F23D2E7FF23E6
:101A5000D0E7FFF701FFDBE70F2004F18042083AEF
:101A6000D9689200904021EA000105FA02F20A4387
:101A7000DA60DFE7BDE8F840FFF7EEBEF8BD00BF73
:101A8000682E00004FF090435A6812B19A6A002AFB
:101A9000FAD17047022838B505460C4603D94C21C7
:101AA0000C48FEF76FFEE378627821785B0143EA29
:101AB000820322790B4343EA02130C226A4302F1A8
:101AC00090421363012902BFA278034B43F82520FB
:101AD00038BD00BFCC2E0000E880034008B54FF0B1
:101AE00090435A6802B960B15B680BB1FFF7CAFF57
:101AF0004FF0904130B10120074B1860FFF7C2FF53
:101B0000C86008BDFFF7BEFF0223CB60FFF7BAFF36
:101B10000122024B1A60F4E7041000480420004838
:101B20004FF090435B6870B50BB1FFF7ABFF01213D
:101B3000104B0679196083784578002BC37814BF61
:101B400002240024002B14BF042200224379DB006E
:101B500043EA06132B43234313434FF09042936011
:101B6000054B19600378002B14BF0B460223D3608A
:101B700070BD00BF04200048041000482DE9F0416A
:101B8000064688461D46174622B94FF4A1712F48D4
:101B9000FEF7F8FDB8F1000F04D14FF42070FEF706
:101BA000CDFF8046202D3AD007D8A5B1BDE8F04141
:101BB00040F289112548FEF7E5BD402D39D0602D52
:101BC000F4D1B7EB980F04D940F283111F48FEF708
:101BD000D9FD042208E0B7EB181F04D94FF4BA71FD
:101BE0001A48FEF7CFFD10227A43540804EB48143C
:101BF000B4FBF2F4164F203CE400BC4204D940F29E
:101C00009F111248FEF7BEFDB3683C4023F060030D
:101C1000B360B3681D43B560F461BDE8F081B7EB14
:101C2000D80F04D940F279110848FEF7ABFD08221D
:101C3000DAE70624B8FBF4F3BB4204D24FF4BF71D9
:101C40000248FEF79FFD2246CEE700BF302F00007E
:101C5000F8FF7F0038B50E4B044698420D4608D079
:101C600003F58043984204D040F2BE210948FEF7B4
:101C700089FD012241F20403E250EB43934003F05B
:101C80000A036361656115B942F20403E25038BD8D
:101C900000C00540302F00001A4B10B59842044692
:101CA00008D003F58043984204D040F22B411648F7
:101CB000FEF768FD41F204030122E25040F6AA63F8
:101CC00041F2050263610023A360E365E26042F232
:101CD00048020E492361E361E364A150094AA36508
:101CE000944202D00A498C4207D19442236502D023
:101CF000074B9C4201D10023636542F20403012299
:101D0000E25010BD00C00540302F0000FFFF010071
:101D10000000064038B5404B044698420D4608D0B6
:101D200003F58043984204D040F2EF213B48FEF790
:101D300029FD2046FFF7B0FF41F204030122E250E3
:101D4000AB7C1BB1A36843F08043A360EB7C5BB129
:101D5000314A2B7D944243D1A2F51032C2F88C3126
:101D6000E36D43F08003E3652A8A6B7B20461343CF
:101D7000EA891343E360D5E901122B7BFFF7FEFEEE
:101D80006B7D1BB1A36843F48033A360AB7DEA7D18
:101D90001B07120502F4E00203F0E043297E13431F
:101DA000A3658B1E012B1C4A1D4B23D894421FD0C8
:101DB00002F5804294420CBF01224FF0FF3203EB48
:101DC0004213022041F21C62032998500CBF41F2D9
:101DD0005C0342F25C030422E2502B78636138BD5D
:101DE000104A944204BFA2F52032C2F89C31B7E7F2
:101DF0000022E4E794420DD00A4A94420CBF01222B
:101E00004FF0FF3203EB4213022042F21C62012921
:101E10009850DBE70022F5E700C00540302F0000B6
:101E200000C003400000064083691B06FCD5406AE1
:101E3000C0B2704783695B06FCD5C1637047000080
:101E400007B56B46054A1068516803C36846FFF73B
:101E50009DFC002003B05DF804FB00BF952F00003F
:101E60004FF0402213B50024536F684643F001033E
:101E7000536700948DF80440FFF744FC204602B0FD
:101E800010BD000070B586B001AA1546114B03F1D4
:101E90001006144618685968083303C4B342224632
:101EA000F7D14FF6FF7219889B782180A3700A4BF7
:101EB0000A481B88934208BF8C23DBB28DF80D3093
:101EC0008DF80E30FEF7E2FB2846FEF7EFFF00200C
:101ED00006B070BD9D2F00000001E00F00F0490228
:101EE0001FB50B4A01AB1068516803C31189927A80
:101EF00019809A70192301A88DF80530FFF7C8F8EA
:101F00006420FFF729F9002005B05DF804FB00BF4D
:101F1000B02F00006FF00402502110B50A480B4C9E
:101F200012F0800FD3B21BBF03F00F03043BA318C2
:101F30001B1802F101020CBF83F800131976402A26
:101F4000EED1002010BD00BF00ED00E000E100E098
:101F500010B50446FFF758FB024B1C60FFF758FB17
:101F6000002010BD4811002010B5FFF74DFB034BBA
:101F70001C68FFF74DFB204610BD00BF4811002034
:101F8000FEE780F82010704790F8200070472DE998
:101F9000F8430026044690461D461E604F1E2B68DF
:101FA000434506D32B68002B0CBF1B200020BDE847
:101FB000F883FFF730FBD4F81490FFF732FBB9F148
:101FC000000FEFD0E368A269D35C07F8013FE36834
:101FD000E26901339342E36008BFE660FFF71BFB51
:101FE0006369013B6361FFF71CFB63682046984708
:101FF0002B6801332B60D2E790F8203070B505468E
:102000000C468E18ABB1B44201D1002070BD2378CC
:102010000A2B03D12B680D21284698472B6814F80A
:10202000011B28469847EEE72B6814F8011B284649
:102030009847A642F8D1E8E770B504460568FFF76F
:1020400093FF844202D10020FFF782FF95F92130EF
:10205000002B11DB012203F01F015B099B0003F140
:1020600060438A4003F56143C3F88021C3F88020B0
:10207000BFF34F8FBFF36F8F00232846C4E90033AF
:10208000A360C4E90433AB68BDE8704018470000A2
:10209000F8B51F46536805460C461646002B36D049
:1020A0009368002B35D024220021204600F0FEFD4D
:1020B0007368194AA361B368E361337B276084F8CE
:1020C0002030069B6360079BA36096F9003084F87C
:1020D00021306A60114A002BAA60114A2C602A61E3
:1020E000104A6A61104AEA600CDB012203F01F010A
:1020F0005B099B0003F160438A4003F56143C3F829
:1021000080211A602846FFF723FF0020F8BD222017
:10211000FCE72120FAE700BFF91F00008F1F000035
:10212000831F0000891F0000392000004269C06938
:1021300082422CBF002001207047000038B5426960
:10214000C36904469A420D4604D34FF4AE71094860
:10215000FEF718FB2369A269D5546269236901322D
:102160006261E26901339342236104BF002323616A
:1021700038BD00BFBB2F0000426AD36C43F004039C
:10218000D364704710B50446426A93695B06FCD578
:10219000002394F82B101A4694F82A00FFF71CFC31
:1021A000002394F82D101A4694F82C00FFF714FC25
:1021B00094F832303BB1002394F82F101A4694F86B
:1021C0002E00FFF709FC94F832303BB1002394F85D
:1021D00031101A4694F83000FFF7FEFB606A0021C8
:1021E000FFF738FD208D0021FEF73AFC002010BDDE
:1021F00008B5406AFFF71EFE002008BD2DE9FF412B
:1022000001261C46564B0A9D0193564B904600935F
:102210000A46CDE90266544B2946FFF739FF0746C7
:10222000002877D1236831466B62A3883A202B853A
:10223000E37985F82B30A37985F82A30637A85F81D
:102240002D30237A85F82C30E37A85F82F30A37A65
:1022500085F82E30637B85F83130237B85F830306C
:10226000FEF7FEFB33460422E179A079FFF7B4FBC9
:1022700033460222617A207AFFF7AEFB3146A0880E
:10228000FEF7EEFB414688F800702068FFF742FD3C
:102290001422A37B5B0103F1804303F57033C3F881
:1022A0001C26E179A27942EA0142C3F83426617A18
:1022B000227A42EA0142C3F82C2685F8327098F857
:1022C0001830032B49D8DFE803F01A022943012311
:1022D00085F83230002500230222E17AA07AFFF748
:1022E0007BFBE37AA27AA17B42EA03421F4B4901BE
:1022F0005A5041F25C0304212268D1508DB942F258
:102300004803042220680521C250C36C1343C364F0
:10231000FFF7A0FC384604B0BDE8F081022385F841
:10232000323000230422617B207BFFF755FB02251E
:1023300041F21C61A27B0E4B03EB42104550607BC7
:10234000217BB13241EA004103EB42139960D6E7A9
:10235000032385F832300125BDE72327DAE700BFE4
:102360008521000079210000F121000024D60340DE
:1023700000C00340436A10B59B6904461B0610D594
:10238000FFF7D4FE40B1606AFFF74EFD01462046DC
:10239000BDE81040FFF7D2BE626AD36C23F004039D
:1023A000D36410BD00230B7070470000104A30B595
:1023B000136841611546ABB91060836011E0091BD9
:1023C0009C6841611A467CB123465C698C42F6D90F
:1023D000002CF4D052B19060836013B15A69511A45
:1023E000596130BD0022F0E72346F4E72860F3E7A7
:1023F0006411002010B500F0FBF9094B094A196877
:1024000031B11368C41A4B69A34203D31B1B4B6140
:10241000106003E0C01A002310604B6110BD00BFC4
:10242000641100205011002038B50F4D02202B6898
:102430005C690E4B1B681C4400F016FA204600F045
:10244000E3F900230A492A680B70D088800702D577
:1024500001230B7038BD9268002AFBD050690344F9
:10246000012BF2D9F6E700BF6411002050110020C3
:102470005811002070B59DF81450164605710025BE
:10248000049A8560BDF818500446C5800260C0E912
:1024900003360D4629B961610BB11146984796B1D3
:1024A0003546FFF7B8F80646FFF7A4FF2946204651
:1024B000FFF77CFF054B1B68A34201D1FFF7B4FF78
:1024C0003046FFF7AEF8002070BD00BF6411002059
:1024D00000210C4A13687BB183420AD1836879B129
:1024E0008B6083681BB15A6941690A445A610020B4
:1024F000704719469B68EEE70028EFD0022070472E
:102500001360EEE76411002070B5FFF784F8144EF5
:1025100005463478FCB9134B1C60134B1C60134BFD
:102520001C8000F021F9012000F09EF900F0DAF99A
:102530000F4B0246186020B92846FFF772F8232097
:1025400070BD23460B4840F2E73100F0EDF90A4B2D
:102550001860012333702846FFF763F80020EFE787
:102560004C11002064110020501100205A1100204D
:102570006011002018FCFFFF5411002038B50C46F4
:10258000054698B191B100230B70FFF744F8012183
:10259000074B1B680BB122781AB1FFF742F80020F5
:1025A00038BD9D420CBF21709B68F3E72220F7E7FE
:1025B00064110020F0B51F46002387B00D46164673
:1025C0008DF817300446A0B10DF11701FFF7D6FFC3
:1025D0009DF817207AB9BDF83430294602939DF84A
:1025E00030302046CDE900733346FFF743FF07B094
:1025F000F0BD2220FBE70320F9E70000044B1B6835
:1026000058434FF47A73B0FBF3F00130704700BFCA
:1026100060110020012300B58BB00AAA02F8193D11
:10262000FFF7ECFF00230146CDE9003304A8134671
:10263000054AFFF7BFFF18B99DF80F30002BFBD1FB
:102640000BB05DF804FB00BFA5230000C2072DE915
:10265000F84F04460BD53F4A138801339BB21380D1
:10266000FFF7C8FE3C4B1B680BB1FFF7DDFEA3076D
:102670006DD500F0BDF8394F00263D688046451BFA
:10268000FEF7C9FFB24683463246334B1C6814B18D
:102690006369AB4214D9012E314B51D1D288022A41
:1026A0004ED11E70002C4ED06369C7F800805D1BB0
:1026B0006561FFF7B9FE5846BDE8F84FFEF7B1BFB8
:1026C00023462A46C7F800805969914209D81879EB
:1026D00094F804C0521A844588BF1C469B68002B9E
:1026E000F2D15846FEF79DFFD4F814B0C4F814A0F8
:1026F000FEF791FF81462046FFF7EAFE4846FEF7C7
:1027000090FF23694BB1FEF786FF81462169204681
:10271000FFF74CFE4846FEF784FFE36813B12168DB
:102720002046984700F064F8D844A5EB0805814698
:102730000544FEF770FF013683462246C846A4E7EB
:1027400000221A70AEE7022000F09AF8B3E7BDE865
:10275000F88F00BF5A110020641100205011002092
:102760005C110020002070471FB500241D4B012183
:1027700018689A88029053F8060FADF80C201B7960
:1027800000903E208DF80430FEF76AF98DF808407D
:10279000FFF7E8FF8DF80C0002A8FFF7C1F96946C2
:1027A00001208DF80040FFF775F94FF0904340F29B
:1027B000FF319A6922F47F7222F003029A610A4A79
:1027C00011609A6A12F00802FBD11A620120FFF729
:1027D00085F94FF48052054BC3F880211A6004B08C
:1027E00010BD00BF333000001420004800E100E0BD
:1027F0004FF090439A6A1207FCD4186A70474FF062
:102800009043186C7047000010B502464FF090449A
:10281000A36A1907FCD4216AFFF7F1FF63695B061D
:1028200004D4431A022B01D888420ED1531A012B2B
:1028300098BF8A1C4FF09043B2F1FF3F28BF01328E
:102840001A649A6942F040029A61064A13783BB1D1
:102850004FF09041CB6B43F00203CB630023137026
:1028600010BD00BF1210002082074FF0904200F010
:102870000103916948BF43F040030B4393617047E4
:10288000830700F001020AD50121084B42F0400203
:1028900019704FF09041CB6B23F00303CB634FF0E3
:1028A00090418B6923EA02038B617047121000206C
:1028B00010B5FEF7B0FE4FF0904304465B695A0630
:1028C000074A03F0010003F0510348BF40F0020043
:1028D0001360FFF7BBFE2046BDE81040FEF7A1BE27
:1028E0001420004808B53E20FEF728F90346FFF7FC
:1028F00039FF23FA00F008BD08B5FDF7DDFDFDF74F
:102900000BFEFDF70BFEFDF710FEBDE80840FDF7DE
:102910000DBE08B5FDF70BFEFDF70AFEFDF709FE3B
:10292000BDE80840FDF706BE53B94AB9002908BF03
:1029300000281CBF4FF0FF314FF0FF3000F07CB992
:10294000ADF1080C6DE904CE00F006F8DDF804E006
:10295000DDE9022304B070472DE9F0478C46089D5D
:1029600004468A46002B4AD18A42174662D9B2FAF7
:1029700082F64EB1C6F1200E01FA06F3B740B4401C
:1029800020FA0EFE4EEA030A4FEA1748230C1FFAFC
:1029900087F9BAFBF8FE08FB1EAA0EFB09F243EA10
:1029A0000A439A420BD9FB180EF1FF312CBF0120CC
:1029B00000209A4202D9002800F02A818E469A1AF5
:1029C000A3B2B2FBF8F008FB102200FB09F943EABE
:1029D0000244A14507D93C1900F1FF3302D2A145B9
:1029E00000F210811846A4EB090440EA0E400021D1
:1029F0001DB1F4400023C5E90043BDE8F0878B42D8
:102A000008D9002D00F0F2800021C5E9000C08462D
:102A1000BDE8F087B3FA83F100294ED16345C0F0D9
:102A2000E880824240F2E5800846002DE5D0C5E905
:102A3000004AE2E702B9FFDEB2FA82F6002E40F069
:102A400099808B1A4FEA124E1FFA82F801214FEA41
:102A5000144CB3FBFEF20EFB123008FB02F94CEAF9
:102A6000004CE14508D917EB0C0C02F1FF3302D200
:102A7000E14500F2CA801A46ACEB090CA3B2BCFBDC
:102A8000FEF00EFB10CC08FB00F843EA0C44A04516
:102A90000ED93C1900F1FF332CBF4FF0010C4FF061
:102AA000000CA04503D9BCF1000F00F0A880184627
:102AB000A4EB080440EA02409AE7C1F120048B40ED
:102AC00002FA01FE0CFA01F6E24020FA04F72CFAB1
:102AD00004FC00FA01F813433E431F0C320C1FFAAA
:102AE00083F9BCFBF7F007FB10CC00FB09FA42EAC4
:102AF0000C4CE24508D913EB0C0C00F1FF3202D26A
:102B0000E24500F289801046ACEB0A0CB6B2BCFB81
:102B1000F7FA07FB1ACC0AFB09F946EA0C42914581
:102B200006D99A180AF1FF3601D291457AD8B246F1
:102B30004AEA0040A2EB0902A0FB0E67BA42B44683
:102B4000B94602D307D1B04505D2B6EB0E0C67EB00
:102B5000030301389946002D6BD0B8EB0C0362EBF0
:102B6000090202FA04F4CB40CA4000211C43C5E923
:102B7000004242E7B740C6F1200201FA06F3B44032
:102B800021FA02FC4FEA174E20FA02F21FFA87F8E8
:102B9000BCFBFEF11A430EFB11CC01FB08F0130C39
:102BA00043EA0C4C604507D917EB0C0C01F1FF33DD
:102BB00001D2604533D81946ACEB000C92B2BCFB95
:102BC000FEF00EFB10CC00FB08F342EA0C4C634510
:102BD00007D917EB0C0C00F1FF3201D2634525D861
:102BE0001046ACEB030340EA014130E72946284692
:102BF00003E7841A6CEB030301209A4615E70238B9
:102C00003C4455E702383C44EDE6023ABC4433E725
:102C1000AEF1020E3B44D2E602389C4474E702391E
:102C2000BC44C9E7AAF1020A1A4481E70238BC444D
:102C3000D7E72946E1E600BF704700BF08B5074B5C
:102C4000044613B1002100E000BF054B1868836AF9
:102C500003B198472046FFF793F900BF000000003A
:102C60004030000070B50D4E00250D4CA41BA41083
:102C7000A54209D10B4E00250B4C00F01FF8A41BF8
:102C8000A410A54205D170BD56F8253001359847EE
:102C9000EEE756F8253001359847F2E7741000202A
:102CA00074100020741000207810002002440346A5
:102CB000934200D1704703F8011BF9E7F8B500BF54
:102CC000F8BC08BC9E467047F8B500BFF8BC08BC0D
:102CD0009E467047633A5C73696C69636F6E6C61A2
:102CE00062735C73696D706C696369747973747510
:102CF00064696F5C76355C646576656C6F7065726F
:102D00005C73646B735C6765636B6F5F73646B5F4D
:102D100073756974655C76332E315C706C617466B2
:102D20006F726D5C656D6C69625C696E635C656D2C
:102D30005F6770696F2E68000500000000000000EA
:102D400000C20100000500000010000000000000AB
:102D500000000000000006402900000500060008F1
:102D6000000701000F100000CC1000202000000020
:102D7000000100002E2E2F6175746F67656E2F7332
:102D80006C5F696F73747265616D5F696E69745FA2
:102D900075736172745F696E7374616E6365732EAF
:102DA0006300433A2F53696C69636F6E4C616273C1
:102DB0002F53696D706C69636974795374756469B4
:102DC0006F2F76352F646576656C6F7065722F7323
:102DD000646B732F6765636B6F5F73646B5F737591
:102DE0006974652F76332E312F706C6174666F7243
:102DF0006D2F656D6C69622F7372632F656D5F63F4
:102E00006D752E6300433A2F53696C69636F6E4C86
:102E10006162732F53696D706C696369747953745F
:102E20007564696F2F76352F646576656C6F706594
:102E3000722F73646B732F6765636B6F5F73646B63
:102E40005F73756974652F76332E312F706C6174E2
:102E5000666F726D2F656D6C69622F7372632F657B
:102E60006D5F656D752E6300433A2F53696C69631E
:102E70006F6E4C6162732F53696D706C6963697416
:102E80007953747564696F2F76352F646576656C38
:102E90006F7065722F73646B732F6765636B6F5F01
:102EA00073646B5F73756974652F76332E312F7081
:102EB0006C6174666F726D2F656D6C69622F7372D1
:102EC000632F656D5F6770696F2E6300433A2F5300
:102ED000696C69636F6E4C6162732F53696D706CBE
:102EE000696369747953747564696F2F76352F64DB
:102EF0006576656C6F7065722F73646B732F676591
:102F0000636B6F5F73646B5F73756974652F763382
:102F10002E312F706C6174666F726D2F656D6C69E8
:102F2000622F7372632F656D5F727463632E63002B
:102F3000433A2F53696C69636F6E4C6162732F5310
:102F4000696D706C696369747953747564696F2F06
:102F500076352F646576656C6F7065722F73646B60
:102F6000732F6765636B6F5F73646B5F73756974F1
:102F7000652F76332E312F706C6174666F726D2FF2
:102F8000656D6C69622F7372632F656D5F75736118
:102F900072742E630001030401010109030B0B028B
:102FA0000000202000038C8C3C000000000000008A
:102FB0000126040000010000000000433A2F53697D
:102FC0006C69636F6E4C6162732F53696D706C69CD
:102FD0006369747953747564696F2F76352F6465EE
:102FE00076656C6F7065722F73646B732F676563A2
:102FF0006B6F5F73646B5F73756974652F76332EC7
:10300000312F706C6174666F726D2F7365727669A3
:1030100063652F696F73747265616D2F7372632FAF
:10302000736C5F696F73747265616D5F75617274E3
:103030002E630001000000050002000003000000F4
:10304000141000200000000000000000000000003C
:103050000000000000000000000000000000000070
:103060000000000000000000000000000000000060
:103070000000000000000000000000000000000050
:103080000000000000000000000000000000000040
:103090000000000000000000000000000000000030
:0430A000000000002C
:0830A400DCD0FF7F01000000F9
:1030AC00C0EA2101C0EA210100F0490200800000C1
:1030BC00FFFF0100000000006430000084300000BD
:1030CC004430000000000000000000000000000080
:1030DC0000000000000000000000000000000000E4
:1030EC0000000000000000000000000000000000D4
:1030FC0000000000000000000000000000000000C4
:10310C0000000000000000000000000000000000B3
:0C311C00000000006501000041010000FF
:04000003000005CD27
:00000001FF
